{
	"data": {
		"bytecode": {
			"linkReferences": {},
			"object": "6080604052735b38da6a701c568545dcfcb03fcb875f56beddc4600160006101000a81548173ffffffffffffffffffffffffffffffffffffffff021916908373ffffffffffffffffffffffffffffffffffffffff1602179055506040518060400160405280600481526020017f7465737400000000000000000000000000000000000000000000000000000000815250600290816200009f91906200032e565b50348015620000ad57600080fd5b5062000415565b600081519050919050565b7f4e487b7100000000000000000000000000000000000000000000000000000000600052604160045260246000fd5b7f4e487b7100000000000000000000000000000000000000000000000000000000600052602260045260246000fd5b600060028204905060018216806200013657607f821691505b6020821081036200014c576200014b620000ee565b5b50919050565b60008190508160005260206000209050919050565b60006020601f8301049050919050565b600082821b905092915050565b600060088302620001b67fffffffffffffffffffffffffffffffffffffffffffffffffffffffffffffffff8262000177565b620001c2868362000177565b95508019841693508086168417925050509392505050565b6000819050919050565b6000819050919050565b60006200020f620002096200020384620001da565b620001e4565b620001da565b9050919050565b6000819050919050565b6200022b83620001ee565b620002436200023a8262000216565b84845462000184565b825550505050565b600090565b6200025a6200024b565b6200026781848462000220565b505050565b5b818110156200028f576200028360008262000250565b6001810190506200026d565b5050565b601f821115620002de57620002a88162000152565b620002b38462000167565b81016020851015620002c3578190505b620002db620002d28562000167565b8301826200026c565b50505b505050565b600082821c905092915050565b60006200030360001984600802620002e3565b1980831691505092915050565b60006200031e8383620002f0565b9150826002028217905092915050565b6200033982620000b4565b67ffffffffffffffff811115620003555762000354620000bf565b5b6200036182546200011d565b6200036e82828562000293565b600060209050601f831160018114620003a6576000841562000391578287015190505b6200039d858262000310565b8655506200040d565b601f198416620003b68662000152565b60005b82811015620003e057848901518255600182019150602085019450602081019050620003b9565b86831015620004005784890151620003fc601f891682620002f0565b8355505b6001600288020188555050505b505050505050565b610a1e80620004256000396000f3fe60806040526004361061006f5760003560e01c8063939a79ac1161004e578063939a79ac146100d2578063e2982c21146100fb578063e665b26614610138578063f8b2cb4f146101635761006f565b80625c33e1146100745780635a455c1c1461007e57806361adaefa146100a9575b600080fd5b61007c6101a0565b005b34801561008a57600080fd5b506100936101e5565b6040516100a09190610401565b60405180910390f35b3480156100b557600080fd5b506100d060048036038101906100cb91906104cb565b610273565b005b3480156100de57600080fd5b506100f960048036038101906100f49190610640565b6102c4565b005b34801561010757600080fd5b50610122600480360381019061011d9190610689565b610312565b60405161012f91906106c5565b60405180910390f35b34801561014457600080fd5b5061014d61032a565b60405161015a91906106ef565b60405180910390f35b34801561016f57600080fd5b5061018a60048036038101906101859190610689565b610350565b60405161019791906106c5565b60405180910390f35b346000803373ffffffffffffffffffffffffffffffffffffffff1673ffffffffffffffffffffffffffffffffffffffff16815260200190815260200160002081905550565b600280546101f290610739565b80601f016020809104026020016040519081016040528092919081815260200182805461021e90610739565b801561026b5780601f106102405761010080835404028352916020019161026b565b820191906000526020600020905b81548152906001019060200180831161024e57829003601f168201915b505050505081565b60008290508073ffffffffffffffffffffffffffffffffffffffff166108fc839081150290604051600060405180830381858888f193505050501580156102be573d6000803e3d6000fd5b50505050565b60006040518060400160405280600481526020017f74656d70000000000000000000000000000000000000000000000000000000008152509050816002908161030d9190610916565b505050565b60006020528060005260406000206000915090505481565b600160009054906101000a900473ffffffffffffffffffffffffffffffffffffffff1681565b60008173ffffffffffffffffffffffffffffffffffffffff16319050919050565b600081519050919050565b600082825260208201905092915050565b60005b838110156103ab578082015181840152602081019050610390565b60008484015250505050565b6000601f19601f8301169050919050565b60006103d382610371565b6103dd818561037c565b93506103ed81856020860161038d565b6103f6816103b7565b840191505092915050565b6000602082019050818103600083015261041b81846103c8565b905092915050565b6000604051905090565b600080fd5b600080fd5b600073ffffffffffffffffffffffffffffffffffffffff82169050919050565b600061046282610437565b9050919050565b61047281610457565b811461047d57600080fd5b50565b60008135905061048f81610469565b92915050565b6000819050919050565b6104a881610495565b81146104b357600080fd5b50565b6000813590506104c58161049f565b92915050565b600080604083850312156104e2576104e161042d565b5b60006104f085828601610480565b9250506020610501858286016104b6565b9150509250929050565b600080fd5b600080fd5b7f4e487b7100000000000000000000000000000000000000000000000000000000600052604160045260246000fd5b61054d826103b7565b810181811067ffffffffffffffff8211171561056c5761056b610515565b5b80604052505050565b600061057f610423565b905061058b8282610544565b919050565b600067ffffffffffffffff8211156105ab576105aa610515565b5b6105b4826103b7565b9050602081019050919050565b82818337600083830152505050565b60006105e36105de84610590565b610575565b9050828152602081018484840111156105ff576105fe610510565b5b61060a8482856105c1565b509392505050565b600082601f8301126106275761062661050b565b5b81356106378482602086016105d0565b91505092915050565b6000602082840312156106565761065561042d565b5b600082013567ffffffffffffffff81111561067457610673610432565b5b61068084828501610612565b91505092915050565b60006020828403121561069f5761069e61042d565b5b60006106ad84828501610480565b91505092915050565b6106bf81610495565b82525050565b60006020820190506106da60008301846106b6565b92915050565b6106e981610457565b82525050565b600060208201905061070460008301846106e0565b92915050565b7f4e487b7100000000000000000000000000000000000000000000000000000000600052602260045260246000fd5b6000600282049050600182168061075157607f821691505b6020821081036107645761076361070a565b5b50919050565b60008190508160005260206000209050919050565b60006020601f8301049050919050565b600082821b905092915050565b6000600883026107cc7fffffffffffffffffffffffffffffffffffffffffffffffffffffffffffffffff8261078f565b6107d6868361078f565b95508019841693508086168417925050509392505050565b6000819050919050565b600061081361080e61080984610495565b6107ee565b610495565b9050919050565b6000819050919050565b61082d836107f8565b6108416108398261081a565b84845461079c565b825550505050565b600090565b610856610849565b610861818484610824565b505050565b5b818110156108855761087a60008261084e565b600181019050610867565b5050565b601f8211156108ca5761089b8161076a565b6108a48461077f565b810160208510156108b3578190505b6108c76108bf8561077f565b830182610866565b50505b505050565b600082821c905092915050565b60006108ed600019846008026108cf565b1980831691505092915050565b600061090683836108dc565b9150826002028217905092915050565b61091f82610371565b67ffffffffffffffff81111561093857610937610515565b5b6109428254610739565b61094d828285610889565b600060209050601f831160018114610980576000841561096e578287015190505b61097885826108fa565b8655506109e0565b601f19841661098e8661076a565b60005b828110156109b657848901518255600182019150602085019450602081019050610991565b868310156109d357848901516109cf601f8916826108dc565b8355505b6001600288020188555050505b50505050505056fea26469706673582212204b18fe26e84799e0ae6911fe97821855d483500f4d3194917ca056fb1c74ae3564736f6c63430008120033",
			"opcodes": "PUSH1 0x80 PUSH1 0x40 MSTORE PUSH20 0x5B38DA6A701C568545DCFCB03FCB875F56BEDDC4 PUSH1 0x1 PUSH1 0x0 PUSH2 0x100 EXP DUP2 SLOAD DUP2 PUSH20 0xFFFFFFFFFFFFFFFFFFFFFFFFFFFFFFFFFFFFFFFF MUL NOT AND SWAP1 DUP4 PUSH20 0xFFFFFFFFFFFFFFFFFFFFFFFFFFFFFFFFFFFFFFFF AND MUL OR SWAP1 SSTORE POP PUSH1 0x40 MLOAD DUP1 PUSH1 0x40 ADD PUSH1 0x40 MSTORE DUP1 PUSH1 0x4 DUP2 MSTORE PUSH1 0x20 ADD PUSH32 0x7465737400000000000000000000000000000000000000000000000000000000 DUP2 MSTORE POP PUSH1 0x2 SWAP1 DUP2 PUSH3 0x9F SWAP2 SWAP1 PUSH3 0x32E JUMP JUMPDEST POP CALLVALUE DUP1 ISZERO PUSH3 0xAD JUMPI PUSH1 0x0 DUP1 REVERT JUMPDEST POP PUSH3 0x415 JUMP JUMPDEST PUSH1 0x0 DUP2 MLOAD SWAP1 POP SWAP2 SWAP1 POP JUMP JUMPDEST PUSH32 0x4E487B7100000000000000000000000000000000000000000000000000000000 PUSH1 0x0 MSTORE PUSH1 0x41 PUSH1 0x4 MSTORE PUSH1 0x24 PUSH1 0x0 REVERT JUMPDEST PUSH32 0x4E487B7100000000000000000000000000000000000000000000000000000000 PUSH1 0x0 MSTORE PUSH1 0x22 PUSH1 0x4 MSTORE PUSH1 0x24 PUSH1 0x0 REVERT JUMPDEST PUSH1 0x0 PUSH1 0x2 DUP3 DIV SWAP1 POP PUSH1 0x1 DUP3 AND DUP1 PUSH3 0x136 JUMPI PUSH1 0x7F DUP3 AND SWAP2 POP JUMPDEST PUSH1 0x20 DUP3 LT DUP2 SUB PUSH3 0x14C JUMPI PUSH3 0x14B PUSH3 0xEE JUMP JUMPDEST JUMPDEST POP SWAP2 SWAP1 POP JUMP JUMPDEST PUSH1 0x0 DUP2 SWAP1 POP DUP2 PUSH1 0x0 MSTORE PUSH1 0x20 PUSH1 0x0 KECCAK256 SWAP1 POP SWAP2 SWAP1 POP JUMP JUMPDEST PUSH1 0x0 PUSH1 0x20 PUSH1 0x1F DUP4 ADD DIV SWAP1 POP SWAP2 SWAP1 POP JUMP JUMPDEST PUSH1 0x0 DUP3 DUP3 SHL SWAP1 POP SWAP3 SWAP2 POP POP JUMP JUMPDEST PUSH1 0x0 PUSH1 0x8 DUP4 MUL PUSH3 0x1B6 PUSH32 0xFFFFFFFFFFFFFFFFFFFFFFFFFFFFFFFFFFFFFFFFFFFFFFFFFFFFFFFFFFFFFFFF DUP3 PUSH3 0x177 JUMP JUMPDEST PUSH3 0x1C2 DUP7 DUP4 PUSH3 0x177 JUMP JUMPDEST SWAP6 POP DUP1 NOT DUP5 AND SWAP4 POP DUP1 DUP7 AND DUP5 OR SWAP3 POP POP POP SWAP4 SWAP3 POP POP POP JUMP JUMPDEST PUSH1 0x0 DUP2 SWAP1 POP SWAP2 SWAP1 POP JUMP JUMPDEST PUSH1 0x0 DUP2 SWAP1 POP SWAP2 SWAP1 POP JUMP JUMPDEST PUSH1 0x0 PUSH3 0x20F PUSH3 0x209 PUSH3 0x203 DUP5 PUSH3 0x1DA JUMP JUMPDEST PUSH3 0x1E4 JUMP JUMPDEST PUSH3 0x1DA JUMP JUMPDEST SWAP1 POP SWAP2 SWAP1 POP JUMP JUMPDEST PUSH1 0x0 DUP2 SWAP1 POP SWAP2 SWAP1 POP JUMP JUMPDEST PUSH3 0x22B DUP4 PUSH3 0x1EE JUMP JUMPDEST PUSH3 0x243 PUSH3 0x23A DUP3 PUSH3 0x216 JUMP JUMPDEST DUP5 DUP5 SLOAD PUSH3 0x184 JUMP JUMPDEST DUP3 SSTORE POP POP POP POP JUMP JUMPDEST PUSH1 0x0 SWAP1 JUMP JUMPDEST PUSH3 0x25A PUSH3 0x24B JUMP JUMPDEST PUSH3 0x267 DUP2 DUP5 DUP5 PUSH3 0x220 JUMP JUMPDEST POP POP POP JUMP JUMPDEST JUMPDEST DUP2 DUP2 LT ISZERO PUSH3 0x28F JUMPI PUSH3 0x283 PUSH1 0x0 DUP3 PUSH3 0x250 JUMP JUMPDEST PUSH1 0x1 DUP2 ADD SWAP1 POP PUSH3 0x26D JUMP JUMPDEST POP POP JUMP JUMPDEST PUSH1 0x1F DUP3 GT ISZERO PUSH3 0x2DE JUMPI PUSH3 0x2A8 DUP2 PUSH3 0x152 JUMP JUMPDEST PUSH3 0x2B3 DUP5 PUSH3 0x167 JUMP JUMPDEST DUP2 ADD PUSH1 0x20 DUP6 LT ISZERO PUSH3 0x2C3 JUMPI DUP2 SWAP1 POP JUMPDEST PUSH3 0x2DB PUSH3 0x2D2 DUP6 PUSH3 0x167 JUMP JUMPDEST DUP4 ADD DUP3 PUSH3 0x26C JUMP JUMPDEST POP POP JUMPDEST POP POP POP JUMP JUMPDEST PUSH1 0x0 DUP3 DUP3 SHR SWAP1 POP SWAP3 SWAP2 POP POP JUMP JUMPDEST PUSH1 0x0 PUSH3 0x303 PUSH1 0x0 NOT DUP5 PUSH1 0x8 MUL PUSH3 0x2E3 JUMP JUMPDEST NOT DUP1 DUP4 AND SWAP2 POP POP SWAP3 SWAP2 POP POP JUMP JUMPDEST PUSH1 0x0 PUSH3 0x31E DUP4 DUP4 PUSH3 0x2F0 JUMP JUMPDEST SWAP2 POP DUP3 PUSH1 0x2 MUL DUP3 OR SWAP1 POP SWAP3 SWAP2 POP POP JUMP JUMPDEST PUSH3 0x339 DUP3 PUSH3 0xB4 JUMP JUMPDEST PUSH8 0xFFFFFFFFFFFFFFFF DUP2 GT ISZERO PUSH3 0x355 JUMPI PUSH3 0x354 PUSH3 0xBF JUMP JUMPDEST JUMPDEST PUSH3 0x361 DUP3 SLOAD PUSH3 0x11D JUMP JUMPDEST PUSH3 0x36E DUP3 DUP3 DUP6 PUSH3 0x293 JUMP JUMPDEST PUSH1 0x0 PUSH1 0x20 SWAP1 POP PUSH1 0x1F DUP4 GT PUSH1 0x1 DUP2 EQ PUSH3 0x3A6 JUMPI PUSH1 0x0 DUP5 ISZERO PUSH3 0x391 JUMPI DUP3 DUP8 ADD MLOAD SWAP1 POP JUMPDEST PUSH3 0x39D DUP6 DUP3 PUSH3 0x310 JUMP JUMPDEST DUP7 SSTORE POP PUSH3 0x40D JUMP JUMPDEST PUSH1 0x1F NOT DUP5 AND PUSH3 0x3B6 DUP7 PUSH3 0x152 JUMP JUMPDEST PUSH1 0x0 JUMPDEST DUP3 DUP2 LT ISZERO PUSH3 0x3E0 JUMPI DUP5 DUP10 ADD MLOAD DUP3 SSTORE PUSH1 0x1 DUP3 ADD SWAP2 POP PUSH1 0x20 DUP6 ADD SWAP5 POP PUSH1 0x20 DUP2 ADD SWAP1 POP PUSH3 0x3B9 JUMP JUMPDEST DUP7 DUP4 LT ISZERO PUSH3 0x400 JUMPI DUP5 DUP10 ADD MLOAD PUSH3 0x3FC PUSH1 0x1F DUP10 AND DUP3 PUSH3 0x2F0 JUMP JUMPDEST DUP4 SSTORE POP JUMPDEST PUSH1 0x1 PUSH1 0x2 DUP9 MUL ADD DUP9 SSTORE POP POP POP JUMPDEST POP POP POP POP POP POP JUMP JUMPDEST PUSH2 0xA1E DUP1 PUSH3 0x425 PUSH1 0x0 CODECOPY PUSH1 0x0 RETURN INVALID PUSH1 0x80 PUSH1 0x40 MSTORE PUSH1 0x4 CALLDATASIZE LT PUSH2 0x6F JUMPI PUSH1 0x0 CALLDATALOAD PUSH1 0xE0 SHR DUP1 PUSH4 0x939A79AC GT PUSH2 0x4E JUMPI DUP1 PUSH4 0x939A79AC EQ PUSH2 0xD2 JUMPI DUP1 PUSH4 0xE2982C21 EQ PUSH2 0xFB JUMPI DUP1 PUSH4 0xE665B266 EQ PUSH2 0x138 JUMPI DUP1 PUSH4 0xF8B2CB4F EQ PUSH2 0x163 JUMPI PUSH2 0x6F JUMP JUMPDEST DUP1 PUSH3 0x5C33E1 EQ PUSH2 0x74 JUMPI DUP1 PUSH4 0x5A455C1C EQ PUSH2 0x7E JUMPI DUP1 PUSH4 0x61ADAEFA EQ PUSH2 0xA9 JUMPI JUMPDEST PUSH1 0x0 DUP1 REVERT JUMPDEST PUSH2 0x7C PUSH2 0x1A0 JUMP JUMPDEST STOP JUMPDEST CALLVALUE DUP1 ISZERO PUSH2 0x8A JUMPI PUSH1 0x0 DUP1 REVERT JUMPDEST POP PUSH2 0x93 PUSH2 0x1E5 JUMP JUMPDEST PUSH1 0x40 MLOAD PUSH2 0xA0 SWAP2 SWAP1 PUSH2 0x401 JUMP JUMPDEST PUSH1 0x40 MLOAD DUP1 SWAP2 SUB SWAP1 RETURN JUMPDEST CALLVALUE DUP1 ISZERO PUSH2 0xB5 JUMPI PUSH1 0x0 DUP1 REVERT JUMPDEST POP PUSH2 0xD0 PUSH1 0x4 DUP1 CALLDATASIZE SUB DUP2 ADD SWAP1 PUSH2 0xCB SWAP2 SWAP1 PUSH2 0x4CB JUMP JUMPDEST PUSH2 0x273 JUMP JUMPDEST STOP JUMPDEST CALLVALUE DUP1 ISZERO PUSH2 0xDE JUMPI PUSH1 0x0 DUP1 REVERT JUMPDEST POP PUSH2 0xF9 PUSH1 0x4 DUP1 CALLDATASIZE SUB DUP2 ADD SWAP1 PUSH2 0xF4 SWAP2 SWAP1 PUSH2 0x640 JUMP JUMPDEST PUSH2 0x2C4 JUMP JUMPDEST STOP JUMPDEST CALLVALUE DUP1 ISZERO PUSH2 0x107 JUMPI PUSH1 0x0 DUP1 REVERT JUMPDEST POP PUSH2 0x122 PUSH1 0x4 DUP1 CALLDATASIZE SUB DUP2 ADD SWAP1 PUSH2 0x11D SWAP2 SWAP1 PUSH2 0x689 JUMP JUMPDEST PUSH2 0x312 JUMP JUMPDEST PUSH1 0x40 MLOAD PUSH2 0x12F SWAP2 SWAP1 PUSH2 0x6C5 JUMP JUMPDEST PUSH1 0x40 MLOAD DUP1 SWAP2 SUB SWAP1 RETURN JUMPDEST CALLVALUE DUP1 ISZERO PUSH2 0x144 JUMPI PUSH1 0x0 DUP1 REVERT JUMPDEST POP PUSH2 0x14D PUSH2 0x32A JUMP JUMPDEST PUSH1 0x40 MLOAD PUSH2 0x15A SWAP2 SWAP1 PUSH2 0x6EF JUMP JUMPDEST PUSH1 0x40 MLOAD DUP1 SWAP2 SUB SWAP1 RETURN JUMPDEST CALLVALUE DUP1 ISZERO PUSH2 0x16F JUMPI PUSH1 0x0 DUP1 REVERT JUMPDEST POP PUSH2 0x18A PUSH1 0x4 DUP1 CALLDATASIZE SUB DUP2 ADD SWAP1 PUSH2 0x185 SWAP2 SWAP1 PUSH2 0x689 JUMP JUMPDEST PUSH2 0x350 JUMP JUMPDEST PUSH1 0x40 MLOAD PUSH2 0x197 SWAP2 SWAP1 PUSH2 0x6C5 JUMP JUMPDEST PUSH1 0x40 MLOAD DUP1 SWAP2 SUB SWAP1 RETURN JUMPDEST CALLVALUE PUSH1 0x0 DUP1 CALLER PUSH20 0xFFFFFFFFFFFFFFFFFFFFFFFFFFFFFFFFFFFFFFFF AND PUSH20 0xFFFFFFFFFFFFFFFFFFFFFFFFFFFFFFFFFFFFFFFF AND DUP2 MSTORE PUSH1 0x20 ADD SWAP1 DUP2 MSTORE PUSH1 0x20 ADD PUSH1 0x0 KECCAK256 DUP2 SWAP1 SSTORE POP JUMP JUMPDEST PUSH1 0x2 DUP1 SLOAD PUSH2 0x1F2 SWAP1 PUSH2 0x739 JUMP JUMPDEST DUP1 PUSH1 0x1F ADD PUSH1 0x20 DUP1 SWAP2 DIV MUL PUSH1 0x20 ADD PUSH1 0x40 MLOAD SWAP1 DUP2 ADD PUSH1 0x40 MSTORE DUP1 SWAP3 SWAP2 SWAP1 DUP2 DUP2 MSTORE PUSH1 0x20 ADD DUP3 DUP1 SLOAD PUSH2 0x21E SWAP1 PUSH2 0x739 JUMP JUMPDEST DUP1 ISZERO PUSH2 0x26B JUMPI DUP1 PUSH1 0x1F LT PUSH2 0x240 JUMPI PUSH2 0x100 DUP1 DUP4 SLOAD DIV MUL DUP4 MSTORE SWAP2 PUSH1 0x20 ADD SWAP2 PUSH2 0x26B JUMP JUMPDEST DUP3 ADD SWAP2 SWAP1 PUSH1 0x0 MSTORE PUSH1 0x20 PUSH1 0x0 KECCAK256 SWAP1 JUMPDEST DUP2 SLOAD DUP2 MSTORE SWAP1 PUSH1 0x1 ADD SWAP1 PUSH1 0x20 ADD DUP1 DUP4 GT PUSH2 0x24E JUMPI DUP3 SWAP1 SUB PUSH1 0x1F AND DUP3 ADD SWAP2 JUMPDEST POP POP POP POP POP DUP2 JUMP JUMPDEST PUSH1 0x0 DUP3 SWAP1 POP DUP1 PUSH20 0xFFFFFFFFFFFFFFFFFFFFFFFFFFFFFFFFFFFFFFFF AND PUSH2 0x8FC DUP4 SWAP1 DUP2 ISZERO MUL SWAP1 PUSH1 0x40 MLOAD PUSH1 0x0 PUSH1 0x40 MLOAD DUP1 DUP4 SUB DUP2 DUP6 DUP9 DUP9 CALL SWAP4 POP POP POP POP ISZERO DUP1 ISZERO PUSH2 0x2BE JUMPI RETURNDATASIZE PUSH1 0x0 DUP1 RETURNDATACOPY RETURNDATASIZE PUSH1 0x0 REVERT JUMPDEST POP POP POP POP JUMP JUMPDEST PUSH1 0x0 PUSH1 0x40 MLOAD DUP1 PUSH1 0x40 ADD PUSH1 0x40 MSTORE DUP1 PUSH1 0x4 DUP2 MSTORE PUSH1 0x20 ADD PUSH32 0x74656D7000000000000000000000000000000000000000000000000000000000 DUP2 MSTORE POP SWAP1 POP DUP2 PUSH1 0x2 SWAP1 DUP2 PUSH2 0x30D SWAP2 SWAP1 PUSH2 0x916 JUMP JUMPDEST POP POP POP JUMP JUMPDEST PUSH1 0x0 PUSH1 0x20 MSTORE DUP1 PUSH1 0x0 MSTORE PUSH1 0x40 PUSH1 0x0 KECCAK256 PUSH1 0x0 SWAP2 POP SWAP1 POP SLOAD DUP2 JUMP JUMPDEST PUSH1 0x1 PUSH1 0x0 SWAP1 SLOAD SWAP1 PUSH2 0x100 EXP SWAP1 DIV PUSH20 0xFFFFFFFFFFFFFFFFFFFFFFFFFFFFFFFFFFFFFFFF AND DUP2 JUMP JUMPDEST PUSH1 0x0 DUP2 PUSH20 0xFFFFFFFFFFFFFFFFFFFFFFFFFFFFFFFFFFFFFFFF AND BALANCE SWAP1 POP SWAP2 SWAP1 POP JUMP JUMPDEST PUSH1 0x0 DUP2 MLOAD SWAP1 POP SWAP2 SWAP1 POP JUMP JUMPDEST PUSH1 0x0 DUP3 DUP3 MSTORE PUSH1 0x20 DUP3 ADD SWAP1 POP SWAP3 SWAP2 POP POP JUMP JUMPDEST PUSH1 0x0 JUMPDEST DUP4 DUP2 LT ISZERO PUSH2 0x3AB JUMPI DUP1 DUP3 ADD MLOAD DUP2 DUP5 ADD MSTORE PUSH1 0x20 DUP2 ADD SWAP1 POP PUSH2 0x390 JUMP JUMPDEST PUSH1 0x0 DUP5 DUP5 ADD MSTORE POP POP POP POP JUMP JUMPDEST PUSH1 0x0 PUSH1 0x1F NOT PUSH1 0x1F DUP4 ADD AND SWAP1 POP SWAP2 SWAP1 POP JUMP JUMPDEST PUSH1 0x0 PUSH2 0x3D3 DUP3 PUSH2 0x371 JUMP JUMPDEST PUSH2 0x3DD DUP2 DUP6 PUSH2 0x37C JUMP JUMPDEST SWAP4 POP PUSH2 0x3ED DUP2 DUP6 PUSH1 0x20 DUP7 ADD PUSH2 0x38D JUMP JUMPDEST PUSH2 0x3F6 DUP2 PUSH2 0x3B7 JUMP JUMPDEST DUP5 ADD SWAP2 POP POP SWAP3 SWAP2 POP POP JUMP JUMPDEST PUSH1 0x0 PUSH1 0x20 DUP3 ADD SWAP1 POP DUP2 DUP2 SUB PUSH1 0x0 DUP4 ADD MSTORE PUSH2 0x41B DUP2 DUP5 PUSH2 0x3C8 JUMP JUMPDEST SWAP1 POP SWAP3 SWAP2 POP POP JUMP JUMPDEST PUSH1 0x0 PUSH1 0x40 MLOAD SWAP1 POP SWAP1 JUMP JUMPDEST PUSH1 0x0 DUP1 REVERT JUMPDEST PUSH1 0x0 DUP1 REVERT JUMPDEST PUSH1 0x0 PUSH20 0xFFFFFFFFFFFFFFFFFFFFFFFFFFFFFFFFFFFFFFFF DUP3 AND SWAP1 POP SWAP2 SWAP1 POP JUMP JUMPDEST PUSH1 0x0 PUSH2 0x462 DUP3 PUSH2 0x437 JUMP JUMPDEST SWAP1 POP SWAP2 SWAP1 POP JUMP JUMPDEST PUSH2 0x472 DUP2 PUSH2 0x457 JUMP JUMPDEST DUP2 EQ PUSH2 0x47D JUMPI PUSH1 0x0 DUP1 REVERT JUMPDEST POP JUMP JUMPDEST PUSH1 0x0 DUP2 CALLDATALOAD SWAP1 POP PUSH2 0x48F DUP2 PUSH2 0x469 JUMP JUMPDEST SWAP3 SWAP2 POP POP JUMP JUMPDEST PUSH1 0x0 DUP2 SWAP1 POP SWAP2 SWAP1 POP JUMP JUMPDEST PUSH2 0x4A8 DUP2 PUSH2 0x495 JUMP JUMPDEST DUP2 EQ PUSH2 0x4B3 JUMPI PUSH1 0x0 DUP1 REVERT JUMPDEST POP JUMP JUMPDEST PUSH1 0x0 DUP2 CALLDATALOAD SWAP1 POP PUSH2 0x4C5 DUP2 PUSH2 0x49F JUMP JUMPDEST SWAP3 SWAP2 POP POP JUMP JUMPDEST PUSH1 0x0 DUP1 PUSH1 0x40 DUP4 DUP6 SUB SLT ISZERO PUSH2 0x4E2 JUMPI PUSH2 0x4E1 PUSH2 0x42D JUMP JUMPDEST JUMPDEST PUSH1 0x0 PUSH2 0x4F0 DUP6 DUP3 DUP7 ADD PUSH2 0x480 JUMP JUMPDEST SWAP3 POP POP PUSH1 0x20 PUSH2 0x501 DUP6 DUP3 DUP7 ADD PUSH2 0x4B6 JUMP JUMPDEST SWAP2 POP POP SWAP3 POP SWAP3 SWAP1 POP JUMP JUMPDEST PUSH1 0x0 DUP1 REVERT JUMPDEST PUSH1 0x0 DUP1 REVERT JUMPDEST PUSH32 0x4E487B7100000000000000000000000000000000000000000000000000000000 PUSH1 0x0 MSTORE PUSH1 0x41 PUSH1 0x4 MSTORE PUSH1 0x24 PUSH1 0x0 REVERT JUMPDEST PUSH2 0x54D DUP3 PUSH2 0x3B7 JUMP JUMPDEST DUP2 ADD DUP2 DUP2 LT PUSH8 0xFFFFFFFFFFFFFFFF DUP3 GT OR ISZERO PUSH2 0x56C JUMPI PUSH2 0x56B PUSH2 0x515 JUMP JUMPDEST JUMPDEST DUP1 PUSH1 0x40 MSTORE POP POP POP JUMP JUMPDEST PUSH1 0x0 PUSH2 0x57F PUSH2 0x423 JUMP JUMPDEST SWAP1 POP PUSH2 0x58B DUP3 DUP3 PUSH2 0x544 JUMP JUMPDEST SWAP2 SWAP1 POP JUMP JUMPDEST PUSH1 0x0 PUSH8 0xFFFFFFFFFFFFFFFF DUP3 GT ISZERO PUSH2 0x5AB JUMPI PUSH2 0x5AA PUSH2 0x515 JUMP JUMPDEST JUMPDEST PUSH2 0x5B4 DUP3 PUSH2 0x3B7 JUMP JUMPDEST SWAP1 POP PUSH1 0x20 DUP2 ADD SWAP1 POP SWAP2 SWAP1 POP JUMP JUMPDEST DUP3 DUP2 DUP4 CALLDATACOPY PUSH1 0x0 DUP4 DUP4 ADD MSTORE POP POP POP JUMP JUMPDEST PUSH1 0x0 PUSH2 0x5E3 PUSH2 0x5DE DUP5 PUSH2 0x590 JUMP JUMPDEST PUSH2 0x575 JUMP JUMPDEST SWAP1 POP DUP3 DUP2 MSTORE PUSH1 0x20 DUP2 ADD DUP5 DUP5 DUP5 ADD GT ISZERO PUSH2 0x5FF JUMPI PUSH2 0x5FE PUSH2 0x510 JUMP JUMPDEST JUMPDEST PUSH2 0x60A DUP5 DUP3 DUP6 PUSH2 0x5C1 JUMP JUMPDEST POP SWAP4 SWAP3 POP POP POP JUMP JUMPDEST PUSH1 0x0 DUP3 PUSH1 0x1F DUP4 ADD SLT PUSH2 0x627 JUMPI PUSH2 0x626 PUSH2 0x50B JUMP JUMPDEST JUMPDEST DUP2 CALLDATALOAD PUSH2 0x637 DUP5 DUP3 PUSH1 0x20 DUP7 ADD PUSH2 0x5D0 JUMP JUMPDEST SWAP2 POP POP SWAP3 SWAP2 POP POP JUMP JUMPDEST PUSH1 0x0 PUSH1 0x20 DUP3 DUP5 SUB SLT ISZERO PUSH2 0x656 JUMPI PUSH2 0x655 PUSH2 0x42D JUMP JUMPDEST JUMPDEST PUSH1 0x0 DUP3 ADD CALLDATALOAD PUSH8 0xFFFFFFFFFFFFFFFF DUP2 GT ISZERO PUSH2 0x674 JUMPI PUSH2 0x673 PUSH2 0x432 JUMP JUMPDEST JUMPDEST PUSH2 0x680 DUP5 DUP3 DUP6 ADD PUSH2 0x612 JUMP JUMPDEST SWAP2 POP POP SWAP3 SWAP2 POP POP JUMP JUMPDEST PUSH1 0x0 PUSH1 0x20 DUP3 DUP5 SUB SLT ISZERO PUSH2 0x69F JUMPI PUSH2 0x69E PUSH2 0x42D JUMP JUMPDEST JUMPDEST PUSH1 0x0 PUSH2 0x6AD DUP5 DUP3 DUP6 ADD PUSH2 0x480 JUMP JUMPDEST SWAP2 POP POP SWAP3 SWAP2 POP POP JUMP JUMPDEST PUSH2 0x6BF DUP2 PUSH2 0x495 JUMP JUMPDEST DUP3 MSTORE POP POP JUMP JUMPDEST PUSH1 0x0 PUSH1 0x20 DUP3 ADD SWAP1 POP PUSH2 0x6DA PUSH1 0x0 DUP4 ADD DUP5 PUSH2 0x6B6 JUMP JUMPDEST SWAP3 SWAP2 POP POP JUMP JUMPDEST PUSH2 0x6E9 DUP2 PUSH2 0x457 JUMP JUMPDEST DUP3 MSTORE POP POP JUMP JUMPDEST PUSH1 0x0 PUSH1 0x20 DUP3 ADD SWAP1 POP PUSH2 0x704 PUSH1 0x0 DUP4 ADD DUP5 PUSH2 0x6E0 JUMP JUMPDEST SWAP3 SWAP2 POP POP JUMP JUMPDEST PUSH32 0x4E487B7100000000000000000000000000000000000000000000000000000000 PUSH1 0x0 MSTORE PUSH1 0x22 PUSH1 0x4 MSTORE PUSH1 0x24 PUSH1 0x0 REVERT JUMPDEST PUSH1 0x0 PUSH1 0x2 DUP3 DIV SWAP1 POP PUSH1 0x1 DUP3 AND DUP1 PUSH2 0x751 JUMPI PUSH1 0x7F DUP3 AND SWAP2 POP JUMPDEST PUSH1 0x20 DUP3 LT DUP2 SUB PUSH2 0x764 JUMPI PUSH2 0x763 PUSH2 0x70A JUMP JUMPDEST JUMPDEST POP SWAP2 SWAP1 POP JUMP JUMPDEST PUSH1 0x0 DUP2 SWAP1 POP DUP2 PUSH1 0x0 MSTORE PUSH1 0x20 PUSH1 0x0 KECCAK256 SWAP1 POP SWAP2 SWAP1 POP JUMP JUMPDEST PUSH1 0x0 PUSH1 0x20 PUSH1 0x1F DUP4 ADD DIV SWAP1 POP SWAP2 SWAP1 POP JUMP JUMPDEST PUSH1 0x0 DUP3 DUP3 SHL SWAP1 POP SWAP3 SWAP2 POP POP JUMP JUMPDEST PUSH1 0x0 PUSH1 0x8 DUP4 MUL PUSH2 0x7CC PUSH32 0xFFFFFFFFFFFFFFFFFFFFFFFFFFFFFFFFFFFFFFFFFFFFFFFFFFFFFFFFFFFFFFFF DUP3 PUSH2 0x78F JUMP JUMPDEST PUSH2 0x7D6 DUP7 DUP4 PUSH2 0x78F JUMP JUMPDEST SWAP6 POP DUP1 NOT DUP5 AND SWAP4 POP DUP1 DUP7 AND DUP5 OR SWAP3 POP POP POP SWAP4 SWAP3 POP POP POP JUMP JUMPDEST PUSH1 0x0 DUP2 SWAP1 POP SWAP2 SWAP1 POP JUMP JUMPDEST PUSH1 0x0 PUSH2 0x813 PUSH2 0x80E PUSH2 0x809 DUP5 PUSH2 0x495 JUMP JUMPDEST PUSH2 0x7EE JUMP JUMPDEST PUSH2 0x495 JUMP JUMPDEST SWAP1 POP SWAP2 SWAP1 POP JUMP JUMPDEST PUSH1 0x0 DUP2 SWAP1 POP SWAP2 SWAP1 POP JUMP JUMPDEST PUSH2 0x82D DUP4 PUSH2 0x7F8 JUMP JUMPDEST PUSH2 0x841 PUSH2 0x839 DUP3 PUSH2 0x81A JUMP JUMPDEST DUP5 DUP5 SLOAD PUSH2 0x79C JUMP JUMPDEST DUP3 SSTORE POP POP POP POP JUMP JUMPDEST PUSH1 0x0 SWAP1 JUMP JUMPDEST PUSH2 0x856 PUSH2 0x849 JUMP JUMPDEST PUSH2 0x861 DUP2 DUP5 DUP5 PUSH2 0x824 JUMP JUMPDEST POP POP POP JUMP JUMPDEST JUMPDEST DUP2 DUP2 LT ISZERO PUSH2 0x885 JUMPI PUSH2 0x87A PUSH1 0x0 DUP3 PUSH2 0x84E JUMP JUMPDEST PUSH1 0x1 DUP2 ADD SWAP1 POP PUSH2 0x867 JUMP JUMPDEST POP POP JUMP JUMPDEST PUSH1 0x1F DUP3 GT ISZERO PUSH2 0x8CA JUMPI PUSH2 0x89B DUP2 PUSH2 0x76A JUMP JUMPDEST PUSH2 0x8A4 DUP5 PUSH2 0x77F JUMP JUMPDEST DUP2 ADD PUSH1 0x20 DUP6 LT ISZERO PUSH2 0x8B3 JUMPI DUP2 SWAP1 POP JUMPDEST PUSH2 0x8C7 PUSH2 0x8BF DUP6 PUSH2 0x77F JUMP JUMPDEST DUP4 ADD DUP3 PUSH2 0x866 JUMP JUMPDEST POP POP JUMPDEST POP POP POP JUMP JUMPDEST PUSH1 0x0 DUP3 DUP3 SHR SWAP1 POP SWAP3 SWAP2 POP POP JUMP JUMPDEST PUSH1 0x0 PUSH2 0x8ED PUSH1 0x0 NOT DUP5 PUSH1 0x8 MUL PUSH2 0x8CF JUMP JUMPDEST NOT DUP1 DUP4 AND SWAP2 POP POP SWAP3 SWAP2 POP POP JUMP JUMPDEST PUSH1 0x0 PUSH2 0x906 DUP4 DUP4 PUSH2 0x8DC JUMP JUMPDEST SWAP2 POP DUP3 PUSH1 0x2 MUL DUP3 OR SWAP1 POP SWAP3 SWAP2 POP POP JUMP JUMPDEST PUSH2 0x91F DUP3 PUSH2 0x371 JUMP JUMPDEST PUSH8 0xFFFFFFFFFFFFFFFF DUP2 GT ISZERO PUSH2 0x938 JUMPI PUSH2 0x937 PUSH2 0x515 JUMP JUMPDEST JUMPDEST PUSH2 0x942 DUP3 SLOAD PUSH2 0x739 JUMP JUMPDEST PUSH2 0x94D DUP3 DUP3 DUP6 PUSH2 0x889 JUMP JUMPDEST PUSH1 0x0 PUSH1 0x20 SWAP1 POP PUSH1 0x1F DUP4 GT PUSH1 0x1 DUP2 EQ PUSH2 0x980 JUMPI PUSH1 0x0 DUP5 ISZERO PUSH2 0x96E JUMPI DUP3 DUP8 ADD MLOAD SWAP1 POP JUMPDEST PUSH2 0x978 DUP6 DUP3 PUSH2 0x8FA JUMP JUMPDEST DUP7 SSTORE POP PUSH2 0x9E0 JUMP JUMPDEST PUSH1 0x1F NOT DUP5 AND PUSH2 0x98E DUP7 PUSH2 0x76A JUMP JUMPDEST PUSH1 0x0 JUMPDEST DUP3 DUP2 LT ISZERO PUSH2 0x9B6 JUMPI DUP5 DUP10 ADD MLOAD DUP3 SSTORE PUSH1 0x1 DUP3 ADD SWAP2 POP PUSH1 0x20 DUP6 ADD SWAP5 POP PUSH1 0x20 DUP2 ADD SWAP1 POP PUSH2 0x991 JUMP JUMPDEST DUP7 DUP4 LT ISZERO PUSH2 0x9D3 JUMPI DUP5 DUP10 ADD MLOAD PUSH2 0x9CF PUSH1 0x1F DUP10 AND DUP3 PUSH2 0x8DC JUMP JUMPDEST DUP4 SSTORE POP JUMPDEST PUSH1 0x1 PUSH1 0x2 DUP9 MUL ADD DUP9 SSTORE POP POP POP JUMPDEST POP POP POP POP POP POP JUMP INVALID LOG2 PUSH5 0x6970667358 0x22 SLT KECCAK256 0x4B XOR INVALID 0x26 0xE8 SELFBALANCE SWAP10 0xE0 0xAE PUSH10 0x11FE97821855D483500F 0x4D BALANCE SWAP5 SWAP2 PUSH29 0xA056FB1C74AE3564736F6C634300081200330000000000000000000000 "
		},
		"gasEstimates": {
			"creation": {
				"codeDepositCost": "518000",
				"executionCost": "infinite",
				"totalCost": "infinite"
			},
			"external": {
				"demo(string)": "infinite",
				"getBalance(address)": "3323",
				"myAddr()": "2558",
				"myStr()": "infinite",
				"payments(address)": "2836",
				"receiveFunds()": "22323",
				"transerTo(address,uint256)": "infinite"
			}
		},
		"methodIdentifiers": {
			"demo(string)": "939a79ac",
			"getBalance(address)": "f8b2cb4f",
			"myAddr()": "e665b266",
			"myStr()": "5a455c1c",
			"payments(address)": "e2982c21",
			"receiveFunds()": "005c33e1",
			"transerTo(address,uint256)": "61adaefa"
		}
	},
	"abi": [
		{
			"inputs": [
				{
					"internalType": "string",
					"name": "newValueStr",
					"type": "string"
				}
			],
			"name": "demo",
			"outputs": [],
			"stateMutability": "nonpayable",
			"type": "function"
		},
		{
			"inputs": [
				{
					"internalType": "address",
					"name": "targetAddr",
					"type": "address"
				}
			],
			"name": "getBalance",
			"outputs": [
				{
					"internalType": "uint256",
					"name": "",
					"type": "uint256"
				}
			],
			"stateMutability": "view",
			"type": "function"
		},
		{
			"inputs": [],
			"name": "myAddr",
			"outputs": [
				{
					"internalType": "address",
					"name": "",
					"type": "address"
				}
			],
			"stateMutability": "view",
			"type": "function"
		},
		{
			"inputs": [],
			"name": "myStr",
			"outputs": [
				{
					"internalType": "string",
					"name": "",
					"type": "string"
				}
			],
			"stateMutability": "view",
			"type": "function"
		},
		{
			"inputs": [
				{
					"internalType": "address",
					"name": "",
					"type": "address"
				}
			],
			"name": "payments",
			"outputs": [
				{
					"internalType": "uint256",
					"name": "",
					"type": "uint256"
				}
			],
			"stateMutability": "view",
			"type": "function"
		},
		{
			"inputs": [],
			"name": "receiveFunds",
			"outputs": [],
			"stateMutability": "payable",
			"type": "function"
		},
		{
			"inputs": [
				{
					"internalType": "address",
					"name": "targetAddr",
					"type": "address"
				},
				{
					"internalType": "uint256",
					"name": "amount",
					"type": "uint256"
				}
			],
			"name": "transerTo",
			"outputs": [],
			"stateMutability": "nonpayable",
			"type": "function"
		}
	]
}